{
  "contractName": "Votaciones",
  "abi": [
    {
      "inputs": [
        {
          "internalType": "contract uc3mtoken",
          "name": "uc3mToken_",
          "type": "address"
        }
      ],
      "stateMutability": "nonpayable",
      "type": "constructor"
    },
    {
      "anonymous": false,
      "inputs": [
        {
          "indexed": false,
          "internalType": "string",
          "name": "",
          "type": "string"
        }
      ],
      "name": "cierreVotacion",
      "type": "event"
    },
    {
      "anonymous": false,
      "inputs": [
        {
          "indexed": false,
          "internalType": "string",
          "name": "",
          "type": "string"
        }
      ],
      "name": "nuevoCandidato",
      "type": "event"
    },
    {
      "anonymous": false,
      "inputs": [
        {
          "indexed": false,
          "internalType": "string",
          "name": "",
          "type": "string"
        }
      ],
      "name": "publicacion_empate",
      "type": "event"
    },
    {
      "anonymous": false,
      "inputs": [
        {
          "indexed": false,
          "internalType": "string",
          "name": "",
          "type": "string"
        }
      ],
      "name": "publicacion_ganador",
      "type": "event"
    },
    {
      "inputs": [],
      "name": "ganador",
      "outputs": [
        {
          "internalType": "string",
          "name": "nombre_candidato",
          "type": "string"
        },
        {
          "internalType": "uint256",
          "name": "edad",
          "type": "uint256"
        },
        {
          "internalType": "uint256",
          "name": "id_candidato",
          "type": "uint256"
        },
        {
          "internalType": "uint256",
          "name": "numero_votos",
          "type": "uint256"
        }
      ],
      "stateMutability": "view",
      "type": "function",
      "constant": true
    },
    {
      "inputs": [
        {
          "internalType": "uint256",
          "name": "",
          "type": "uint256"
        }
      ],
      "name": "lista_candidatos",
      "outputs": [
        {
          "internalType": "string",
          "name": "nombre_candidato",
          "type": "string"
        },
        {
          "internalType": "uint256",
          "name": "edad",
          "type": "uint256"
        },
        {
          "internalType": "uint256",
          "name": "id_candidato",
          "type": "uint256"
        },
        {
          "internalType": "uint256",
          "name": "numero_votos",
          "type": "uint256"
        }
      ],
      "stateMutability": "view",
      "type": "function",
      "constant": true
    },
    {
      "inputs": [
        {
          "internalType": "uint256",
          "name": "",
          "type": "uint256"
        }
      ],
      "name": "lista_empates",
      "outputs": [
        {
          "internalType": "string",
          "name": "nombre_candidato",
          "type": "string"
        },
        {
          "internalType": "uint256",
          "name": "edad",
          "type": "uint256"
        },
        {
          "internalType": "uint256",
          "name": "id_candidato",
          "type": "uint256"
        },
        {
          "internalType": "uint256",
          "name": "numero_votos",
          "type": "uint256"
        }
      ],
      "stateMutability": "view",
      "type": "function",
      "constant": true
    },
    {
      "inputs": [],
      "name": "periodo_votaciones_fin",
      "outputs": [
        {
          "internalType": "uint256",
          "name": "",
          "type": "uint256"
        }
      ],
      "stateMutability": "view",
      "type": "function",
      "constant": true
    },
    {
      "inputs": [],
      "name": "get_cierre_votaciones",
      "outputs": [
        {
          "internalType": "bool",
          "name": "",
          "type": "bool"
        }
      ],
      "stateMutability": "view",
      "type": "function",
      "constant": true
    },
    {
      "inputs": [
        {
          "internalType": "string",
          "name": "nombre_candidato_",
          "type": "string"
        },
        {
          "internalType": "uint256",
          "name": "edad_",
          "type": "uint256"
        }
      ],
      "name": "insertarCandidato",
      "outputs": [],
      "stateMutability": "nonpayable",
      "type": "function"
    },
    {
      "inputs": [
        {
          "internalType": "uint256",
          "name": "id_candidato_",
          "type": "uint256"
        }
      ],
      "name": "eliminarCandidato",
      "outputs": [],
      "stateMutability": "nonpayable",
      "type": "function"
    },
    {
      "inputs": [],
      "name": "verCandidatos",
      "outputs": [
        {
          "components": [
            {
              "internalType": "string",
              "name": "nombre_candidato",
              "type": "string"
            },
            {
              "internalType": "uint256",
              "name": "edad",
              "type": "uint256"
            },
            {
              "internalType": "uint256",
              "name": "id_candidato",
              "type": "uint256"
            },
            {
              "internalType": "uint256",
              "name": "numero_votos",
              "type": "uint256"
            }
          ],
          "internalType": "struct Votaciones.candidato[]",
          "name": "",
          "type": "tuple[]"
        }
      ],
      "stateMutability": "view",
      "type": "function",
      "constant": true
    },
    {
      "inputs": [],
      "name": "activarVotaciones",
      "outputs": [],
      "stateMutability": "nonpayable",
      "type": "function"
    },
    {
      "inputs": [
        {
          "internalType": "uint256",
          "name": "id_candidato_",
          "type": "uint256"
        }
      ],
      "name": "votar",
      "outputs": [],
      "stateMutability": "nonpayable",
      "type": "function"
    },
    {
      "inputs": [
        {
          "internalType": "uint256",
          "name": "nia_",
          "type": "uint256"
        },
        {
          "internalType": "string",
          "name": "password_",
          "type": "string"
        }
      ],
      "name": "solicitarToken",
      "outputs": [],
      "stateMutability": "nonpayable",
      "type": "function"
    },
    {
      "inputs": [
        {
          "internalType": "uint256",
          "name": "nia_",
          "type": "uint256"
        },
        {
          "internalType": "bytes32",
          "name": "hash_",
          "type": "bytes32"
        }
      ],
      "name": "anadirHashNuevo",
      "outputs": [],
      "stateMutability": "nonpayable",
      "type": "function"
    },
    {
      "inputs": [],
      "name": "publicacionResultados",
      "outputs": [],
      "stateMutability": "nonpayable",
      "type": "function"
    },
    {
      "inputs": [],
      "name": "verPorcentajeVotos",
      "outputs": [
        {
          "components": [
            {
              "internalType": "string",
              "name": "nombre_candidato",
              "type": "string"
            },
            {
              "internalType": "uint256",
              "name": "edad",
              "type": "uint256"
            },
            {
              "internalType": "uint256",
              "name": "id_candidato",
              "type": "uint256"
            },
            {
              "internalType": "uint256",
              "name": "numero_votos",
              "type": "uint256"
            }
          ],
          "internalType": "struct Votaciones.candidato[]",
          "name": "",
          "type": "tuple[]"
        }
      ],
      "stateMutability": "view",
      "type": "function",
      "constant": true
    }
  ],
  "bytecode": "0x608060405260006001556000600260006101000a81548160ff0219169083151502179055506000600b60006101000a81548160ff0219169083151502179055506000600c553480156200005157600080fd5b5060405162002e4838038062002e48833981810160405281019062000077919062000116565b80600d60006101000a81548173ffffffffffffffffffffffffffffffffffffffff021916908373ffffffffffffffffffffffffffffffffffffffff160217905550336000806101000a81548173ffffffffffffffffffffffffffffffffffffffff021916908373ffffffffffffffffffffffffffffffffffffffff16021790555050620001a4565b60008151905062000110816200018a565b92915050565b6000602082840312156200012957600080fd5b60006200013984828501620000ff565b91505092915050565b60006200014f826200016a565b9050919050565b6000620001638262000142565b9050919050565b600073ffffffffffffffffffffffffffffffffffffffff82169050919050565b620001958162000156565b8114620001a157600080fd5b50565b612c9480620001b46000396000f3fe608060405234801561001057600080fd5b50600436106100ea5760003560e01c8063b4ed17c61161008c578063ee408fe611610066578063ee408fe61461022e578063f42d66a614610238578063fcdf420514610256578063fd926fda14610272576100ea565b8063b4ed17c6146101c1578063caaa49a6146101dd578063e3a442e9146101fb576100ea565b806376a1f4b6116100c857806376a1f4b6146101315780639114bde81461014f57806394731ca3146101705780639bfcaca3146101a3576100ea565b806319ff2c18146100ef578063216068311461010b578063562499f714610127575b600080fd5b61010960048036038101906101049190611c40565b61028e565b005b61012560048036038101906101209190611c94565b61041a565b005b61012f6107c9565b005b610139610dd3565b604051610146919061283d565b60405180910390f35b610157610dd9565b6040516101679493929190612651565b60405180910390f35b61018a60048036038101906101859190611c94565b610e7f565b60405161019a9493929190612651565b60405180910390f35b6101ab610f47565b6040516101b89190612614565b60405180910390f35b6101db60048036038101906101d69190611d22565b610f5e565b005b6101e5611238565b6040516101f291906125f2565b60405180910390f35b61021560048036038101906102109190611c94565b611347565b6040516102259493929190612651565b60405180910390f35b61023661140f565b005b6102406114d3565b60405161024d91906125f2565b60405180910390f35b610270600480360381019061026b9190611ce6565b611626565b005b61028c60048036038101906102879190611c94565b6116d0565b005b60008054906101000a900473ffffffffffffffffffffffffffffffffffffffff1673ffffffffffffffffffffffffffffffffffffffff163373ffffffffffffffffffffffffffffffffffffffff161461031c576040517f08c379a0000000000000000000000000000000000000000000000000000000008152600401610313906127fd565b60405180910390fd5b6001600081548092919061032f90612abd565b919050555060036040518060800160405280848152602001838152602001600154815260200160008152509080600181540180825580915050600190039060005260206000209060040201600090919091909150600082015181600001908051906020019061039f9291906119eb565b5060208201518160010155604082015181600201556060820151816003015550507fc12931b53d5264b60aa8af3ba19be39dd75d51c06b87d9a40791ca87be97a348826040516020016103f2919061251f565b60405160208183030381529060405260405161040e919061262f565b60405180910390a15050565b600a5442111561045f576040517f08c379a0000000000000000000000000000000000000000000000000000000008152600401610456906126dd565b60405180910390fd5b60001515600e60003373ffffffffffffffffffffffffffffffffffffffff1673ffffffffffffffffffffffffffffffffffffffff16815260200190815260200160002060009054906101000a900460ff161515146104f2576040517f08c379a00000000000000000000000000000000000000000000000000000000081526004016104e99061275d565b60405180910390fd5b60006064905080600d60009054906101000a900473ffffffffffffffffffffffffffffffffffffffff1673ffffffffffffffffffffffffffffffffffffffff166370a08231336040518263ffffffff1660e01b81526004016105549190612569565b60206040518083038186803b15801561056c57600080fd5b505afa158015610580573d6000803e3d6000fd5b505050506040513d601f19601f820116820180604052508101906105a49190611cbd565b10156105e5576040517f08c379a00000000000000000000000000000000000000000000000000000000081526004016105dc906126fd565b60405180910390fd5b6000821180156105f757506001548211155b610636576040517f08c379a000000000000000000000000000000000000000000000000000000000815260040161062d9061269d565b60405180910390fd5b600360018361064591906129b1565b8154811061067c577f4e487b7100000000000000000000000000000000000000000000000000000000600052603260045260246000fd5b9060005260206000209060040201600301600081548092919061069e90612abd565b91905055506001600e60003373ffffffffffffffffffffffffffffffffffffffff1673ffffffffffffffffffffffffffffffffffffffff16815260200190815260200160002060006101000a81548160ff021916908315150217905550600d60009054906101000a900473ffffffffffffffffffffffffffffffffffffffff1673ffffffffffffffffffffffffffffffffffffffff1663e7dafdb63330846040518463ffffffff1660e01b815260040161075a939291906125bb565b602060405180830381600087803b15801561077457600080fd5b505af1158015610788573d6000803e3d6000fd5b505050506040513d601f19601f820116820180604052508101906107ac9190611c17565b50600c60008154809291906107c090612abd565b91905055505050565b60008054906101000a900473ffffffffffffffffffffffffffffffffffffffff1673ffffffffffffffffffffffffffffffffffffffff163373ffffffffffffffffffffffffffffffffffffffff1614610857576040517f08c379a000000000000000000000000000000000000000000000000000000000815260040161084e906127fd565b60405180910390fd5b600a54421161089b576040517f08c379a00000000000000000000000000000000000000000000000000000000081526004016108929061281d565b60405180910390fd5b7f7eb4cacd51d633796a4ca4b11add697ceb0d48f1897a9858a120deb6fe593b556040516108c89061277d565b60405180910390a1600360008154811061090b577f4e487b7100000000000000000000000000000000000000000000000000000000600052603260045260246000fd5b90600052602060002090600402016005600082018160000190805461092f90612a8b565b61093a929190611a71565b506001820154816001015560028201548160020155600382015481600301559050506000600190505b600154811015610a6457600560030154600382815481106109ad577f4e487b7100000000000000000000000000000000000000000000000000000000600052603260045260246000fd5b9060005260206000209060040201600301541115610a5157600381815481106109ff577f4e487b7100000000000000000000000000000000000000000000000000000000600052603260045260246000fd5b906000526020600020906004020160056000820181600001908054610a2390612a8b565b610a2e929190611a71565b506001820154816001015560028201548160020155600382015481600301559050505b8080610a5c90612abd565b915050610963565b5060005b600154811015610c085760056003015460038281548110610ab2577f4e487b7100000000000000000000000000000000000000000000000000000000600052603260045260246000fd5b906000526020600020906004020160030154148015610b21575060056002015460038281548110610b0c577f4e487b7100000000000000000000000000000000000000000000000000000000600052603260045260246000fd5b90600052602060002090600402016002015414155b15610bf5576001600260006101000a81548160ff021916908315150217905550600960038281548110610b7d577f4e487b7100000000000000000000000000000000000000000000000000000000600052603260045260246000fd5b906000526020600020906004020190806001815401808255809150506001900390600052602060002090600402016000909190919091506000820181600001908054610bc890612a8b565b610bd3929190611a71565b5060018201548160010155600282015481600201556003820154816003015550505b8080610c0090612abd565b915050610a68565b5060011515600260009054906101000a900460ff1615151415610c5b577f4822dc48005b387b05b89d28e9a367dc8cca37cca8bbfd0a95d5227ac2e9b54e604051610c529061279d565b60405180910390a15b60011515600260009054906101000a900460ff16151514158015610c9157506002600c54610c899190612980565b600560030154115b15610d80577f09435d39b8c5ee53e6f7cd9aa33126228168553ef0c28132e32893e4d2b1586f610d666040518060600160405280603c8152602001612c23603c913960056000018054610ce390612a8b565b80601f0160208091040260200160405190810160405280929190818152602001828054610d0f90612a8b565b8015610d5c5780601f10610d3157610100808354040283529160200191610d5c565b820191906000526020600020905b815481529060010190602001808311610d3f57829003601f168201915b50505050506119bf565b604051610d73919061262f565b60405180910390a1610db6565b7f09435d39b8c5ee53e6f7cd9aa33126228168553ef0c28132e32893e4d2b1586f604051610dad906126bd565b60405180910390a15b6001600b60006101000a81548160ff021916908315150217905550565b600a5481565b6005806000018054610dea90612a8b565b80601f0160208091040260200160405190810160405280929190818152602001828054610e1690612a8b565b8015610e635780601f10610e3857610100808354040283529160200191610e63565b820191906000526020600020905b815481529060010190602001808311610e4657829003601f168201915b5050505050908060010154908060020154908060030154905084565b60038181548110610e8f57600080fd5b9060005260206000209060040201600091509050806000018054610eb290612a8b565b80601f0160208091040260200160405190810160405280929190818152602001828054610ede90612a8b565b8015610f2b5780601f10610f0057610100808354040283529160200191610f2b565b820191906000526020600020905b815481529060010190602001808311610f0e57829003601f168201915b5050505050908060010154908060020154908060030154905084565b6000600b60009054906101000a900460ff16905090565b60008282604051602001610f73929190612541565b60405160208183030381529060405280519060200120905080600f60008581526020019081526020016000205414610fe0576040517f08c379a0000000000000000000000000000000000000000000000000000000008152600401610fd7906127bd565b60405180910390fd5b6000600d60009054906101000a900473ffffffffffffffffffffffffffffffffffffffff1673ffffffffffffffffffffffffffffffffffffffff166370a08231336040518263ffffffff1660e01b815260040161103d9190612569565b60206040518083038186803b15801561105557600080fd5b505afa158015611069573d6000803e3d6000fd5b505050506040513d601f19601f8201168201806040525081019061108d9190611cbd565b146110cd576040517f08c379a00000000000000000000000000000000000000000000000000000000081526004016110c4906127dd565b60405180910390fd5b60001515600e60003373ffffffffffffffffffffffffffffffffffffffff1673ffffffffffffffffffffffffffffffffffffffff16815260200190815260200160002060009054906101000a900460ff16151514611160576040517f08c379a00000000000000000000000000000000000000000000000000000000081526004016111579061273d565b60405180910390fd5b600d60009054906101000a900473ffffffffffffffffffffffffffffffffffffffff1673ffffffffffffffffffffffffffffffffffffffff1663e7dafdb660008054906101000a900473ffffffffffffffffffffffffffffffffffffffff163360646040518463ffffffff1660e01b81526004016111e093929190612584565b602060405180830381600087803b1580156111fa57600080fd5b505af115801561120e573d6000803e3d6000fd5b505050506040513d601f19601f820116820180604052508101906112329190611c17565b50505050565b60606003805480602002602001604051908101604052809291908181526020016000905b8282101561133e578382906000526020600020906004020160405180608001604052908160008201805461128f90612a8b565b80601f01602080910402602001604051908101604052809291908181526020018280546112bb90612a8b565b80156113085780601f106112dd57610100808354040283529160200191611308565b820191906000526020600020905b8154815290600101906020018083116112eb57829003601f168201915b5050505050815260200160018201548152602001600282015481526020016003820154815250508152602001906001019061125c565b50505050905090565b6009818154811061135757600080fd5b906000526020600020906004020160009150905080600001805461137a90612a8b565b80601f01602080910402602001604051908101604052809291908181526020018280546113a690612a8b565b80156113f35780601f106113c8576101008083540402835291602001916113f3565b820191906000526020600020905b8154815290600101906020018083116113d657829003601f168201915b5050505050908060010154908060020154908060030154905084565b60008054906101000a900473ffffffffffffffffffffffffffffffffffffffff1673ffffffffffffffffffffffffffffffffffffffff163373ffffffffffffffffffffffffffffffffffffffff161461149d576040517f08c379a0000000000000000000000000000000000000000000000000000000008152600401611494906127fd565b60405180910390fd5b60001515600b60009054906101000a900460ff161515146114bd57600080fd5b610258426114cb919061292a565b600a81905550565b6060600a544211611519576040517f08c379a00000000000000000000000000000000000000000000000000000000081526004016115109061281d565b60405180910390fd5b6003805480602002602001604051908101604052809291908181526020016000905b8282101561161d578382906000526020600020906004020160405180608001604052908160008201805461156e90612a8b565b80601f016020809104026020016040519081016040528092919081815260200182805461159a90612a8b565b80156115e75780601f106115bc576101008083540402835291602001916115e7565b820191906000526020600020905b8154815290600101906020018083116115ca57829003601f168201915b5050505050815260200160018201548152602001600282015481526020016003820154815250508152602001906001019061153b565b50505050905090565b60008054906101000a900473ffffffffffffffffffffffffffffffffffffffff1673ffffffffffffffffffffffffffffffffffffffff163373ffffffffffffffffffffffffffffffffffffffff16146116b4576040517f08c379a00000000000000000000000000000000000000000000000000000000081526004016116ab906127fd565b60405180910390fd5b80600f6000848152602001908152602001600020819055505050565b60008054906101000a900473ffffffffffffffffffffffffffffffffffffffff1673ffffffffffffffffffffffffffffffffffffffff163373ffffffffffffffffffffffffffffffffffffffff161461175e576040517f08c379a0000000000000000000000000000000000000000000000000000000008152600401611755906127fd565b60405180910390fd5b6001548111156117a3576040517f08c379a000000000000000000000000000000000000000000000000000000000815260040161179a9061271d565b60405180910390fd5b6000805b60038054905081101561181e5782600382815481106117ef577f4e487b7100000000000000000000000000000000000000000000000000000000600052603260045260246000fd5b906000526020600020906004020160020154141561180b578091505b808061181690612abd565b9150506117a7565b5060008190505b6003805490508110156119ba57600160038054905061184491906129b1565b8114156118c9576003805480611883577f4e487b7100000000000000000000000000000000000000000000000000000000600052603160045260246000fd5b6001900381819060005260206000209060040201600080820160006118a89190611afe565b600182016000905560028201600090556003820160009055505090556119a7565b60036001826118d8919061292a565b8154811061190f577f4e487b7100000000000000000000000000000000000000000000000000000000600052603260045260246000fd5b906000526020600020906004020160038281548110611957577f4e487b7100000000000000000000000000000000000000000000000000000000600052603260045260246000fd5b9060005260206000209060040201600082018160000190805461197990612a8b565b611984929190611a71565b506001820154816001015560028201548160020155600382015481600301559050505b80806119b290612abd565b915050611825565b505050565b606082826040516020016119d49291906124fb565b604051602081830303815290604052905092915050565b8280546119f790612a8b565b90600052602060002090601f016020900481019282611a195760008555611a60565b82601f10611a3257805160ff1916838001178555611a60565b82800160010185558215611a60579182015b82811115611a5f578251825591602001919060010190611a44565b5b509050611a6d9190611b3e565b5090565b828054611a7d90612a8b565b90600052602060002090601f016020900481019282611a9f5760008555611aed565b82601f10611ab05780548555611aed565b82800160010185558215611aed57600052602060002091601f016020900482015b82811115611aec578254825591600101919060010190611ad1565b5b509050611afa9190611b3e565b5090565b508054611b0a90612a8b565b6000825580601f10611b1c5750611b3b565b601f016020900490600052602060002090810190611b3a9190611b3e565b5b50565b5b80821115611b57576000816000905550600101611b3f565b5090565b6000611b6e611b6984612889565b612858565b905082815260208101848484011115611b8657600080fd5b611b91848285612a49565b509392505050565b600081519050611ba881612bdd565b92915050565b600081359050611bbd81612bf4565b92915050565b600082601f830112611bd457600080fd5b8135611be4848260208601611b5b565b91505092915050565b600081359050611bfc81612c0b565b92915050565b600081519050611c1181612c0b565b92915050565b600060208284031215611c2957600080fd5b6000611c3784828501611b99565b91505092915050565b60008060408385031215611c5357600080fd5b600083013567ffffffffffffffff811115611c6d57600080fd5b611c7985828601611bc3565b9250506020611c8a85828601611bed565b9150509250929050565b600060208284031215611ca657600080fd5b6000611cb484828501611bed565b91505092915050565b600060208284031215611ccf57600080fd5b6000611cdd84828501611c02565b91505092915050565b60008060408385031215611cf957600080fd5b6000611d0785828601611bed565b9250506020611d1885828601611bae565b9150509250929050565b60008060408385031215611d3557600080fd5b6000611d4385828601611bed565b925050602083013567ffffffffffffffff811115611d6057600080fd5b611d6c85828601611bc3565b9150509250929050565b6000611d828383612463565b905092915050565b611d93816129e5565b82525050565b6000611da4826128c9565b611dae81856128ec565b935083602082028501611dc0856128b9565b8060005b85811015611dfc5784840389528151611ddd8582611d76565b9450611de8836128df565b925060208a01995050600181019050611dc4565b50829750879550505050505092915050565b611e17816129f7565b82525050565b611e2681612a37565b82525050565b6000611e37826128d4565b611e4181856128fd565b9350611e51818560208601612a58565b611e5a81612bcc565b840191505092915050565b6000611e70826128d4565b611e7a818561290e565b9350611e8a818560208601612a58565b611e9381612bcc565b840191505092915050565b6000611ea9826128d4565b611eb3818561291f565b9350611ec3818560208601612a58565b80840191505092915050565b6000611edc60438361290e565b91507f456c2069642064652063616e64696461746f20706f7220656c2071756520657360008301527f74c3a17320696e74656e74616e646f20766f74617220657320696e636f72726560208301527f63746f00000000000000000000000000000000000000000000000000000000006040830152606082019050919050565b6000611f68604c8361290e565b91507f5365207469656e65207175652070726f647563697220756e6120736567756e6460008301527f61207675656c74612070617261206465636c6172617220656c2067616e61646f60208301527f7220646566696e697469766f00000000000000000000000000000000000000006040830152606082019050919050565b6000611ff460268361290e565b91507f456c20706572696f646f20646520766f746163696f6e6573207961206861206160008301527f63616261646f00000000000000000000000000000000000000000000000000006020830152604082019050919050565b600061205a60268361290e565b91507f4e6f2070726563697361732064656c20746f6b656e207061726120706f64657260008301527f20766f74617200000000000000000000000000000000000000000000000000006020830152604082019050919050565b60006120c060378361290e565b91507f456c2069642064656c2063616e64696461746f2071756520717569657265732060008301527f656c696d696e6172206e6f20657320636f72726563746f0000000000000000006020830152604082019050919050565b6000612126601b8361290e565b91507f59612068617320766f7461646f20616e746572696f726d656e746500000000006000830152602082019050919050565b600061216660238361290e565b91507f4e6f207469656e6573207065726d69736f73207061726120706f64657220766f60008301527f74617200000000000000000000000000000000000000000000000000000000006020830152604082019050919050565b60006121cc60348361291f565b91507f2073652070726573656e74612061206c617320656c656363696f6e657320706160008301527f726120726563746f72206465206c61205543334d0000000000000000000000006020830152603482019050919050565b6000612232601d8361290e565b91507f53652068616e206365727261646f206c617320766f746163696f6e65730000006000830152602082019050919050565b600061227260138361290e565b91507f48612068616269646f20756e20656d70617465000000000000000000000000006000830152602082019050919050565b60006122b2604d8361290e565b91507f4e6f20657374c3a1732070726573656e746520656e206c61206c69737461206460008301527f65206c6120756e6976657273696461642c20706f6e746520656e20636f6e746160208301527f63746f20636f6e20656c6c6f73000000000000000000000000000000000000006040830152606082019050919050565b600061233e60258361290e565b91507f59612068617320726563696269646f20656c20746f6b656e20616e7465696f7260008301527f6d656e74650000000000000000000000000000000000000000000000000000006020830152604082019050919050565b60006123a4603a8361290e565b91507f457374c3a17320696e74656e74616e646f2061636365646572206120756e612060008301527f66756e6369c3b36e206465206c6120556e6976657273696461640000000000006020830152604082019050919050565b600061240a60248361290e565b91507f456c20706572696f646f20646520766f746163696f6e2073696775652076696760008301527f656e7465000000000000000000000000000000000000000000000000000000006020830152604082019050919050565b600060808301600083015184820360008601526124808282611e2c565b915050602083015161249560208601826124c6565b5060408301516124a860408601826124c6565b5060608301516124bb60608601826124c6565b508091505092915050565b6124cf81612a2d565b82525050565b6124de81612a2d565b82525050565b6124f56124f082612a2d565b612b06565b82525050565b60006125078285611e9e565b91506125138284611e9e565b91508190509392505050565b600061252b8284611e9e565b9150612536826121bf565b915081905092915050565b600061254d82856124e4565b60208201915061255d8284611e9e565b91508190509392505050565b600060208201905061257e6000830184611d8a565b92915050565b60006060820190506125996000830186611d8a565b6125a66020830185611d8a565b6125b36040830184611e1d565b949350505050565b60006060820190506125d06000830186611d8a565b6125dd6020830185611d8a565b6125ea60408301846124d5565b949350505050565b6000602082019050818103600083015261260c8184611d99565b905092915050565b60006020820190506126296000830184611e0e565b92915050565b600060208201905081810360008301526126498184611e65565b905092915050565b6000608082019050818103600083015261266b8187611e65565b905061267a60208301866124d5565b61268760408301856124d5565b61269460608301846124d5565b95945050505050565b600060208201905081810360008301526126b681611ecf565b9050919050565b600060208201905081810360008301526126d681611f5b565b9050919050565b600060208201905081810360008301526126f681611fe7565b9050919050565b600060208201905081810360008301526127168161204d565b9050919050565b60006020820190508181036000830152612736816120b3565b9050919050565b6000602082019050818103600083015261275681612119565b9050919050565b6000602082019050818103600083015261277681612159565b9050919050565b6000602082019050818103600083015261279681612225565b9050919050565b600060208201905081810360008301526127b681612265565b9050919050565b600060208201905081810360008301526127d6816122a5565b9050919050565b600060208201905081810360008301526127f681612331565b9050919050565b6000602082019050818103600083015261281681612397565b9050919050565b60006020820190508181036000830152612836816123fd565b9050919050565b600060208201905061285260008301846124d5565b92915050565b6000604051905081810181811067ffffffffffffffff8211171561287f5761287e612b9d565b5b8060405250919050565b600067ffffffffffffffff8211156128a4576128a3612b9d565b5b601f19601f8301169050602081019050919050565b6000819050602082019050919050565b600081519050919050565b600081519050919050565b6000602082019050919050565b600082825260208201905092915050565b600082825260208201905092915050565b600082825260208201905092915050565b600081905092915050565b600061293582612a2d565b915061294083612a2d565b9250827fffffffffffffffffffffffffffffffffffffffffffffffffffffffffffffffff0382111561297557612974612b10565b5b828201905092915050565b600061298b82612a2d565b915061299683612a2d565b9250826129a6576129a5612b3f565b5b828204905092915050565b60006129bc82612a2d565b91506129c783612a2d565b9250828210156129da576129d9612b10565b5b828203905092915050565b60006129f082612a0d565b9050919050565b60008115159050919050565b6000819050919050565b600073ffffffffffffffffffffffffffffffffffffffff82169050919050565b6000819050919050565b6000612a4282612a2d565b9050919050565b82818337600083830152505050565b60005b83811015612a76578082015181840152602081019050612a5b565b83811115612a85576000848401525b50505050565b60006002820490506001821680612aa357607f821691505b60208210811415612ab757612ab6612b6e565b5b50919050565b6000612ac882612a2d565b91507fffffffffffffffffffffffffffffffffffffffffffffffffffffffffffffffff821415612afb57612afa612b10565b5b600182019050919050565b6000819050919050565b7f4e487b7100000000000000000000000000000000000000000000000000000000600052601160045260246000fd5b7f4e487b7100000000000000000000000000000000000000000000000000000000600052601260045260246000fd5b7f4e487b7100000000000000000000000000000000000000000000000000000000600052602260045260246000fd5b7f4e487b7100000000000000000000000000000000000000000000000000000000600052604160045260246000fd5b6000601f19601f8301169050919050565b612be6816129f7565b8114612bf157600080fd5b50565b612bfd81612a03565b8114612c0857600080fd5b50565b612c1481612a2d565b8114612c1f57600080fd5b5056fe456c206e7565766f20526563746f72206465206c6120556e697665727369646164204361726c6f7320494949206465204d61647269642065733a2020a2646970667358221220a3edb04e1c5dc6d8db426341e32f2a16d62fb30f534f470167df8e2927b8416364736f6c63430008000033",
  "immutableReferences": {},
  "source": "// SPDX-License-Identifier: MIT\r\npragma solidity ^0.8.0;\r\npragma experimental ABIEncoderV2;\r\nimport \"./uc3mtoken.sol\"; \r\n\r\n\r\ncontract Votaciones{\r\n\r\n    ////////////////////////////////////////////////////////////   VARIABLES GLOBALES   ////////////////////////////////////////////////////////////\r\n    address owner; //Propietario del contrato \r\n\r\n    uint contador_id = 0; //contador para el id del candidato\r\n    bool empate = false;\r\n\r\n    struct candidato {\r\n\r\n        string nombre_candidato;\r\n        uint edad;   \r\n        uint id_candidato; \r\n        uint numero_votos;\r\n\r\n    }\r\n\r\n    candidato[] public lista_candidatos;    //Lista con todos los candidatos \r\n    bytes32[] private lista_hashes;         //Lista de hashes con NIA y contrasea de las personas que votan\r\n    candidato public ganador;               //Ganador de las elecciones\r\n    candidato[] public lista_empates;       //Lista con los candidatos que han empatado\r\n    uint256 public periodo_votaciones_fin;  //Se marca la fecha de finalizacin mediante un timestamp posterior\r\n    bool cierre_votaciones = false;         //Para comprobar si las elecciones ya han sido cerradas o no\r\n    uint contador_votos = 0; \r\n\r\n    //Creacion del token\r\n    uc3mtoken uc3mToken; \r\n\r\n    ////////////////////////////////////////////////////////////    CONSTRUCTOR     ////////////////////////////////////////////////////////////\r\n    constructor(uc3mtoken uc3mToken_) {\r\n        uc3mToken = uc3mToken_;\r\n        owner = msg.sender;  \r\n    }\r\n\r\n    ////////////////////////////////////////////////////////////    FUNCIONES   ////////////////////////////////////////////////////////////\r\n\r\n    function get_cierre_votaciones() public view returns(bool){//Comprobar si se usa en el javascript\r\n        return cierre_votaciones; \r\n    }\r\n    \r\n    function insertarCandidato(string memory nombre_candidato_, uint edad_) public soloUniversidad{\r\n        contador_id++; \r\n            lista_candidatos.push(candidato(nombre_candidato_, edad_, contador_id, 0)); \r\n            emit nuevoCandidato(string(abi.encodePacked(nombre_candidato_,\" se presenta a las elecciones para rector de la UC3M\"))); \r\n    }\r\n\r\n    function eliminarCandidato(uint id_candidato_) public soloUniversidad() {\r\n       \r\n        require(id_candidato_<=contador_id, \"El id del candidato que quieres eliminar no es correcto\");\r\n\r\n            uint index = 0; \r\n            for(uint a = 0; a<lista_candidatos.length; a++){\r\n                if(lista_candidatos[a].id_candidato == id_candidato_){\r\n                    index = a; \r\n                }\r\n            }\r\n\r\n            for(uint r = index; r<lista_candidatos.length; r++){\r\n                if(r == lista_candidatos.length - 1){\r\n                    lista_candidatos.pop();\r\n                }\r\n                else{\r\n                    lista_candidatos[r] = lista_candidatos[r+1];\r\n                }\r\n                \r\n            }\r\n    }\r\n\r\n    function verCandidatos() public view returns(candidato[] memory) {\r\n        return lista_candidatos; \r\n    }\r\n\r\n    function activarVotaciones() public soloUniversidad{\r\n        require(cierre_votaciones == false);  \r\n        periodo_votaciones_fin = block.timestamp + 10 minutes; \r\n    }\r\n\r\n    function votar(uint id_candidato_) public periodoVotaciones soloVotante {\r\n\r\n        /*Modelar que el candidato eliminado ya no se le pueda votar!!!!*/\r\n\r\n        uint256 tokenAmount = 100;\r\n        \r\n        require(uc3mToken.balanceOf(msg.sender) >= tokenAmount, \"No precisas del token para poder votar\");\r\n        require(id_candidato_ > 0 && id_candidato_ <= contador_id, unicode\"El id de candidato por el que ests intentando votar es incorrecto\");\r\n\r\n        lista_candidatos[id_candidato_ - 1].numero_votos++; //Se suma el voto al candidato\r\n\r\n        votante[msg.sender] = true;\r\n\r\n        uc3mToken.transfer_token(msg.sender, address(this), tokenAmount); //Transfiero el token del votante a la universidad\r\n\r\n        contador_votos++; \r\n\r\n    }\r\n\r\n    function solicitarToken (uint nia_, string memory password_) public {\r\n        bytes32 hash_datos = keccak256(abi.encodePacked(nia_,password_)); \r\n\r\n        require(hash_estudiante[nia_] == hash_datos, unicode\"No ests presente en la lista de la universidad, ponte en contacto con ellos\"); \r\n\r\n        require(uc3mToken.balanceOf(msg.sender) == 0, \"Ya has recibido el token anteiormente\"); \r\n\r\n        require(votante[msg.sender] == false, \"Ya has votado anteriormente\");\r\n\r\n        uc3mToken.transfer_token(owner, msg.sender, 100);\r\n    }\r\n\r\n    function anadirHashNuevo(uint nia_, bytes32 hash_) public soloUniversidad{\r\n        hash_estudiante[nia_] = hash_;\r\n    }\r\n\r\n    function publicacionResultados() public soloUniversidad{\r\n        require(block.timestamp>periodo_votaciones_fin, \"El periodo de votacion sigue vigente\"); \r\n        emit cierreVotacion(\"Se han cerrado las votaciones\");\r\n        \r\n        ganador = lista_candidatos[0]; //Asigno como ganador el primer candidato, en caso de que los siguientes tengan ms votos que ste, se asignar nuevo ganador \r\n\r\n        for(uint i = 1; i<contador_id; i++){\r\n            if(lista_candidatos[i].numero_votos > ganador.numero_votos){\r\n                ganador = lista_candidatos[i]; \r\n            }\r\n        }\r\n\r\n        for(uint j = 0; j<contador_id; j++){\r\n            if((lista_candidatos[j].numero_votos == ganador.numero_votos) && (lista_candidatos[j].id_candidato != ganador.id_candidato)){//Compruebo si hay empate con el ganador provisional\r\n                empate = true; \r\n                lista_empates.push(lista_candidatos[j]); \r\n            }\r\n        }\r\n\r\n        \r\n        if(empate == true){\r\n            emit publicacion_empate(\"Ha habido un empate\"); \r\n        }\r\n        if((empate != true) && ((ganador.numero_votos) > (contador_votos/2))){\r\n            emit publicacion_ganador(concat(\"El nuevo Rector de la Universidad Carlos III de Madrid es:  \", ganador.nombre_candidato));\r\n        }\r\n        else{\r\n            emit publicacion_ganador(\"Se tiene que producir una segunda vuelta para declarar el ganador definitivo\");\r\n        }    \r\n\r\n        cierre_votaciones = true;   \r\n    }\r\n\r\n    function verPorcentajeVotos() public view returns (candidato[] memory){\r\n        require(block.timestamp>periodo_votaciones_fin, \"El periodo de votacion sigue vigente\"); \r\n        return lista_candidatos;\r\n    }\r\n\r\n    function concat(string memory a, string memory b) internal pure returns (string memory) {\r\n    return string(abi.encodePacked(a, b));\r\n    }\r\n\r\n    //////////////////////////////////////////////////////////// MODIFIERS ////////////////////////////////////////////////////////////\r\n    modifier soloUniversidad(){\r\n        require(msg.sender == owner,unicode\"Ests intentando acceder a una funcin de la Universidad\"); \r\n        _; \r\n    }\r\n\r\n    modifier soloVotante(){\r\n        require(votante[msg.sender] == false,unicode\"No tienes permisos para poder votar\");\r\n        _; \r\n    }\r\n\r\n    //Mira si est abierto el periodo de votaciones \r\n    modifier periodoVotaciones(){ \r\n        require(block.timestamp <= periodo_votaciones_fin, \"El periodo de votaciones ya ha acabado\");\r\n        _;\r\n    }\r\n\r\n    //////////////////////////////////////////////////////////// EVENTOS ////////////////////////////////////////////////////////////\r\n    event nuevoCandidato(string);  \r\n    event cierreVotacion(string);\r\n    event publicacion_ganador(string);\r\n    event publicacion_empate(string);\r\n\r\n    //////////////////////////////////////////////////////////// MAPPINGS ////////////////////////////////////////////////////////////\r\n    mapping (address => bool) votante; //Me relaciona un usuario con si ya ha votado una vez\r\n    mapping (uint => bytes32) hash_estudiante; \r\n\r\n\r\n}",
  "sourcePath": "C:\\Users\\jandr\\OneDrive\\Desktop\\TFGvotaciones\\contracts\\Votaciones.sol",
  "compiler": {
    "name": "solc",
    "version": "0.8.0+commit.c7dfd78e.Emscripten.clang"
  },
  "schemaVersion": "3.4.13",
  "updatedAt": "2023-08-28T11:58:20.905Z",
  "networkType": "ethereum",
  "devdoc": {
    "kind": "dev",
    "methods": {},
    "version": 1
  },
  "userdoc": {
    "kind": "user",
    "methods": {},
    "version": 1
  }
}